{
  "contractName": "Test",
  "abi": [
    {
      "inputs": [],
      "payable": false,
      "stateMutability": "nonpayable",
      "type": "constructor"
    },
    {
      "anonymous": false,
      "inputs": [
        {
          "indexed": true,
          "internalType": "address",
          "name": "_user",
          "type": "address"
        },
        {
          "indexed": false,
          "internalType": "uint256",
          "name": "_amount",
          "type": "uint256"
        }
      ],
      "name": "logUser",
      "type": "event"
    },
    {
      "constant": true,
      "inputs": [
        {
          "internalType": "address",
          "name": "",
          "type": "address"
        }
      ],
      "name": "balances",
      "outputs": [
        {
          "internalType": "uint256",
          "name": "",
          "type": "uint256"
        }
      ],
      "payable": false,
      "stateMutability": "view",
      "type": "function"
    },
    {
      "constant": true,
      "inputs": [],
      "name": "owner",
      "outputs": [
        {
          "internalType": "address",
          "name": "",
          "type": "address"
        }
      ],
      "payable": false,
      "stateMutability": "view",
      "type": "function"
    },
    {
      "constant": true,
      "inputs": [],
      "name": "sadiq",
      "outputs": [
        {
          "internalType": "string",
          "name": "firstName",
          "type": "string"
        },
        {
          "internalType": "string",
          "name": "lastName",
          "type": "string"
        },
        {
          "internalType": "uint256",
          "name": "age",
          "type": "uint256"
        }
      ],
      "payable": false,
      "stateMutability": "view",
      "type": "function"
    },
    {
      "constant": true,
      "inputs": [
        {
          "internalType": "uint256",
          "name": "",
          "type": "uint256"
        }
      ],
      "name": "stringArray",
      "outputs": [
        {
          "internalType": "string",
          "name": "",
          "type": "string"
        }
      ],
      "payable": false,
      "stateMutability": "view",
      "type": "function"
    },
    {
      "constant": false,
      "inputs": [],
      "name": "doThings",
      "outputs": [],
      "payable": false,
      "stateMutability": "nonpayable",
      "type": "function"
    },
    {
      "constant": false,
      "inputs": [],
      "name": "doThings_2",
      "outputs": [],
      "payable": false,
      "stateMutability": "nonpayable",
      "type": "function"
    },
    {
      "constant": false,
      "inputs": [
        {
          "internalType": "address",
          "name": "newOwner",
          "type": "address"
        }
      ],
      "name": "changeOwner",
      "outputs": [],
      "payable": false,
      "stateMutability": "nonpayable",
      "type": "function"
    },
    {
      "constant": false,
      "inputs": [],
      "name": "sendOneEth",
      "outputs": [],
      "payable": true,
      "stateMutability": "payable",
      "type": "function"
    }
  ],
  "bytecode": "0x608060405260016000806101000a81548160ff021916908315150217905550600260015560028060006101000a81548160ff021916908360ff1602179055507ffffffffffffffffffffffffffffffffffffffffffffffffffffffffffffffffc6003556040518060400160405280600581526020017f48656c6c6f00000000000000000000000000000000000000000000000000000081525060049080519060200190620000af929190620001ec565b5060405180604001604052806040518060400160405280600281526020017f686900000000000000000000000000000000000000000000000000000000000081525081526020016040518060400160405280600581526020017f68656c6c6f00000000000000000000000000000000000000000000000000000081525081525060059060026200014192919062000273565b50736f283ca1ea2a305662e25437f65aa9a52ae31c90600960006101000a81548173ffffffffffffffffffffffffffffffffffffffff021916908373ffffffffffffffffffffffffffffffffffffffff160217905550348015620001a457600080fd5b5033600b60006101000a81548173ffffffffffffffffffffffffffffffffffffffff021916908373ffffffffffffffffffffffffffffffffffffffff16021790555062000406565b828054600181600116156101000203166002900490600052602060002090601f016020900481019282601f106200022f57805160ff191683800117855562000260565b8280016001018555821562000260579182015b828111156200025f57825182559160200191906001019062000242565b5b5090506200026f9190620002da565b5090565b828054828255906000526020600020908101928215620002c7579160200282015b82811115620002c6578251829080519060200190620002b592919062000302565b509160200191906001019062000294565b5b509050620002d6919062000389565b5090565b620002ff91905b80821115620002fb576000816000905550600101620002e1565b5090565b90565b828054600181600116156101000203166002900490600052602060002090601f016020900481019282601f106200034557805160ff191683800117855562000376565b8280016001018555821562000376579182015b828111156200037557825182559160200191906001019062000358565b5b509050620003859190620002da565b5090565b620003b791905b80821115620003b35760008181620003a99190620003ba565b5060010162000390565b5090565b90565b50805460018160011615610100020316600290046000825580601f10620003e2575062000403565b601f016020900490600052602060002090810190620004029190620002da565b5b50565b61094580620004166000396000f3fe60806040526004361061007b5760003560e01c80638f86beb71161004e5780638f86beb7146102075780639c70b5d21461021e578063a6f9dae114610321578063fa8e37ce146103725761007b565b806327e235e3146100805780636422c4c8146100e55780638484b3e4146101995780638da5cb5b146101b0575b600080fd5b34801561008c57600080fd5b506100cf600480360360208110156100a357600080fd5b81019080803573ffffffffffffffffffffffffffffffffffffffff16906020019092919050505061037c565b6040518082815260200191505060405180910390f35b3480156100f157600080fd5b5061011e6004803603602081101561010857600080fd5b8101908080359060200190929190505050610394565b6040518080602001828103825283818151815260200191508051906020019080838360005b8381101561015e578082015181840152602081019050610143565b50505050905090810190601f16801561018b5780820380516001836020036101000a031916815260200191505b509250505060405180910390f35b3480156101a557600080fd5b506101ae61044d565b005b3480156101bc57600080fd5b506101c561051e565b604051808273ffffffffffffffffffffffffffffffffffffffff1673ffffffffffffffffffffffffffffffffffffffff16815260200191505060405180910390f35b34801561021357600080fd5b5061021c610544565b005b34801561022a57600080fd5b506102336105ad565b604051808060200180602001848152602001838103835286818151815260200191508051906020019080838360005b8381101561027d578082015181840152602081019050610262565b50505050905090810190601f1680156102aa5780820380516001836020036101000a031916815260200191505b50838103825285818151815260200191508051906020019080838360005b838110156102e35780820151818401526020810190506102c8565b50505050905090810190601f1680156103105780820380516001836020036101000a031916815260200191505b509550505050505060405180910390f35b34801561032d57600080fd5b506103706004803603602081101561034457600080fd5b81019080803573ffffffffffffffffffffffffffffffffffffffff1690602001909291905050506106f5565b005b61037a6107df565b005b600a6020528060005260406000206000915090505481565b600581815481106103a157fe5b906000526020600020016000915090508054600181600116156101000203166002900480601f0160208091040260200160405190810160405280929190818152602001828054600181600116156101000203166002900480156104455780601f1061041a57610100808354040283529160200191610445565b820191906000526020600020905b81548152906001019060200180831161042857829003601f168201915b505050505081565b60405180606001604052806040518060400160405280600881526020017f41627562616b617200000000000000000000000000000000000000000000000081525081526020016040518060400160405280600681526020017f49736d61696c000000000000000000000000000000000000000000000000000081525081526020016013815250600660008201518160000190805190602001906104f1929190610846565b50602082015181600101908051906020019061050e929190610846565b5060408201518160020155905050565b600b60009054906101000a900473ffffffffffffffffffffffffffffffffffffffff1681565b6064600a6000600960009054906101000a900473ffffffffffffffffffffffffffffffffffffffff1673ffffffffffffffffffffffffffffffffffffffff1673ffffffffffffffffffffffffffffffffffffffff16815260200190815260200160002081905550565b6006806000018054600181600116156101000203166002900480601f0160208091040260200160405190810160405280929190818152602001828054600181600116156101000203166002900480156106475780601f1061061c57610100808354040283529160200191610647565b820191906000526020600020905b81548152906001019060200180831161062a57829003601f168201915b505050505090806001018054600181600116156101000203166002900480601f0160208091040260200160405190810160405280929190818152602001828054600181600116156101000203166002900480156106e55780601f106106ba576101008083540402835291602001916106e5565b820191906000526020600020905b8154815290600101906020018083116106c857829003601f168201915b5050505050908060020154905083565b600b60009054906101000a900473ffffffffffffffffffffffffffffffffffffffff1673ffffffffffffffffffffffffffffffffffffffff163373ffffffffffffffffffffffffffffffffffffffff161461079b576040517f08c379a00000000000000000000000000000000000000000000000000000000081526004018080602001828103825260258152602001806108ec6025913960400191505060405180910390fd5b80600b60006101000a81548173ffffffffffffffffffffffffffffffffffffffff021916908373ffffffffffffffffffffffffffffffffffffffff16021790555050565b6003670de0b6b3a764000034146107f557600080fd5b3373ffffffffffffffffffffffffffffffffffffffff167f7554bb21c6a79337a2248202418509993c46a5cd0472df183fde4a40d3040dac346040518082815260200191505060405180910390a250565b828054600181600116156101000203166002900490600052602060002090601f016020900481019282601f1061088757805160ff19168380011785556108b5565b828001600101855582156108b5579182015b828111156108b4578251825591602001919060010190610899565b5b5090506108c291906108c6565b5090565b6108e891905b808211156108e45760008160009055506001016108cc565b5090565b9056fe4f6e6c7920746865206f776e65722063616e206368616e676520746865206f776e65722121a265627a7a72315820ba86f6d8ae27e572a4144f3b5eedbe368bc359785afa2bbaccf3c548c8a2cd5c64736f6c63430005100032",
  "source": "// SPDX-License-Identifier: MIT\npragma solidity >=0.4.22 <0.9.0;\n\ncontract Test {\n  bool trueOrFalse = true;\n  //Uint means unsigned integer it cant take nagative value\n  uint number8 = 2;\n  uint8 number =  2;\n  //signed integer can have negative and positive value\n  int any = -4;\n  string basicString = \"Hello\";\n\n  //Array in solidity\n  string[] public stringArray = [\"hi\",\"hello\"];\n  //public means it is a public keyword in the blockchain\n\n  Person public sadiq;\n  struct Person {\n    string firstName;\n    string lastName;\n    uint age;\n  }\n  //Function in solidity\n  function doThings() public {\n    sadiq = Person(\n      {\n        firstName:\"Abubakar\",\n        lastName:\"Ismail\",\n        age:19\n      }\n    );\n  }\n  //Mapping\n  address user = 0x6F283cA1Ea2A305662e25437f65aA9a52aE31c90;\n  mapping(address =>uint) public balances;\n  function doThings_2() public {\n    balances[user] = 100;\n  }\n\n  //Constructors\n  address public owner;\n\n  constructor() public{\n    owner = msg.sender;\n  }\n  function changeOwner(address newOwner) public {\n    require(msg.sender == owner, \"Only the owner can change the owner!!\");\n\n    owner = newOwner;\n  }\n  //Events And Modifiers\n  event logUser(address indexed _user, uint _amount);\n\n  modifier onlyOneEther(uint256 _amount){\n    require(msg.value == 1 ether);\n    _;\n  }\n  function sendOneEth() public payable onlyOneEther(3){\n    emit logUser(msg.sender,msg.value);\n  }\n\n\n}",
  "sourcePath": "/home/abubakar/Desktop/Blockchain Projects/peopleList/contracts/Test.sol",
  "compiler": {
    "name": "solc",
    "version": "0.5.16+commit.9c3226ce.Emscripten.clang"
  },
  "schemaVersion": "3.4.1",
  "updatedAt": "2021-07-16T09:39:24.172Z",
  "devdoc": {
    "methods": {}
  },
  "userdoc": {
    "methods": {}
  }
}